:100000000C942A000C9434000C9434000C943400AA
:100010000C9434000C9434000C9434000C94340090
:100020000C9434000C9434000C9434000C94340080
:100030000C9434000C9434000C9434000C94340070
:100040000C9434000C9434000C9434000C94340060
:100050000C94340011241FBECFE5D8E0DEBFCDBF25
:100060000E9436000C9410090C940000DF93CF938B
:100070000F92CDB7DEB70E9438010E9461010E9445
:100080000F038FEF0E942403898389818D3619F431
:1000900080E00E9420018981873619F480E00E9467
:1000A00020018981823669F780E00E942001E9CF32
:1000B000DF93CF93CDB7DEB780E060E041E00E94F0
:1000C000F40480E061E041E00E94F40481E063E038
:1000D00041E00E94F40483E064E041E00E94F40403
:1000E00083E065E041E00E94F40483E067E041E0E2
:1000F0000E94F404CF91DF910895DF93CF93CDB7A1
:10010000DEB780E060E041E00E94D70581E063E077
:1001100041E00E94D70583E064E040E00E94D705FB
:1001200080E061E041E00E94D70583E065E041E0C6
:100130000E94D70583E067E040E00E94D705CF9199
:10014000DF910895DF93CF93CDB7DEB780E060E015
:1001500041E00E94D70581E063E040E00E94D705BE
:1001600083E064E041E00E94D70580E061E041E087
:100170000E94D70583E065E040E00E94D70583E058
:1001800067E041E00E94D705CF91DF910895DF93AA
:10019000CF93CDB7DEB780E060E041E00E94D705A5
:1001A00081E063E041E00E94D70583E064E041E044
:1001B0000E94D70580E061E041E00E94D70583E01E
:1001C00065E041E00E94D70583E067E041E00E94DE
:1001D000D705CF91DF910895DF93CF930F92CDB7DD
:1001E000DEB789838981882329F481E060E041E0DA
:1001F0000E94D7058981813029F480E060E041E0E8
:100200000E94D7050F90CF91DF910895DF93CF9390
:100210000F92CDB7DEB789838981882329F481E0E5
:1002200060E040E00E94D7058981813029F480E0B8
:1002300060E040E00E94D7050F90CF91DF910895D4
:10024000DF93CF930F92CDB7DEB78983898188235F
:1002500021F481E060E00E94BA068981813021F4B6
:1002600080E060E00E94BA060F90CF91DF91089580
:10027000DF93CF93CDB7DEB781E060E041E00E942D
:10028000F40480E060E041E00E94F404CF91DF914B
:100290000895DF93CF9300D0CDB7DEB78A8381E096
:1002A00089838A81882339F482E060E00E943707DD
:1002B000813009F4198289810F900F90CF91DF91DD
:1002C0000895DF93CF93CDB7DEB782E060E040E0E2
:1002D0000E94F404CF91DF910895CF92EF920F9393
:1002E000DF93CF93CDB7DEB760970FB6F894DEBF3C
:1002F0000FBECDBF89837B836A834C832D830E839E
:10030000EF82C886E0E4F0E08A819B81892F9927FB
:100310008083E9E2F0E08A8180838885282F30E0BD
:10032000388B2F878F8598898130910589F02F85AB
:10033000388922303105A1F08F8598890097F1F432
:10034000AAE2B0E0EAE2F0E0808180618C9316C01E
:10035000AAE2B0E0EAE2F0E0808188608C930EC00F
:10036000AAE2B0E0EAE2F0E0808188608C93AAE241
:10037000B0E0EAE2F0E0808180618C93A0E4B0E03C
:10038000E0E4F0E0808180688C938D81282F30E05C
:100390003E872D878D859E858130910521F12D85A4
:1003A0003E85223031052CF48D859E85009761F0C5
:1003B00046C02D853E852230310521F18D859E85F3
:1003C0008330910571F13BC0A0E4B0E0E0E4F0E0DF
:1003D00080818D7F8C93A0E4B0E0E0E4F0E0808148
:1003E0008B7F8C932CC0A0E4B0E0E0E4F0E080814F
:1003F00082608C93A0E4B0E0E0E4F0E080818B7F49
:100400008C931DC0A0E4B0E0E0E4F0E080818D7F3B
:100410008C93A0E4B0E0E0E4F0E0808184608C9311
:100420000EC0A0E4B0E0E0E4F0E0808182608C9354
:10043000A0E4B0E0E0E4F0E0808184608C938E8101
:10044000282F30E03C872B878B859C85009731F0E7
:100450002B853C852130310549F00FC0A0E4B0E088
:10046000E0E4F0E08081877F8C9307C0A0E4B0E0F7
:10047000E0E4F0E0808188608C938F81282F30E069
:100480003A87298789859A8581309105C1F0298528
:100490003A852230310511F189859A85009761F5F9
:1004A000A0E4B0E0E0E4F0E080818F7E8C93A0E4F3
:1004B000B0E0E0E4F0E080818F7D8C931DC0A0E48B
:1004C000B0E0E0E4F0E080818F7E8C93A0E4B0E0C7
:1004D000E0E4F0E0808180628C930EC0A0E4B0E0A4
:1004E000E0E4F0E0808180618C93A0E4B0E0E0E49F
:1004F000F0E0808180628C938C81882F90E0813045
:100500009105A9F4AFE5B0E0EFE5F0E08081806807
:100510008C93AAE2B0E0EAE2F0E0808180648C9300
:10052000AAE2B0E0EAE2F0E0808180688C93898101
:10053000882341F4A0E4B0E0E0E4F0E0808180644E
:100540008C930AC08981813039F4A0E4B0E0E0E402
:10055000F0E080818F7B8C9360960FB6F894DEBFBD
:100560000FBECDBFCF91DF910F91EF90CF90089547
:10057000DF93CF930F92CDB7DEB78983EBE2F0E044
:100580008081882F90E0807290700097B9F3ECE240
:10059000F0E0898180830F90CF91DF910895DF9300
:1005A000CF9300D0CDB7DEB79A8389830AC0E981A3
:1005B000FA8180810E94B80289819A8101969A838A
:1005C0008983E981FA818081882389F70F900F90D0
:1005D000CF91DF910895DF93CF93CDB7DEB7EBE2F4
:1005E000F0E080818823DCF7ECE2F0E08081CF91BD
:1005F000DF910895DF93CF93CDB7DEB7A7E3B0E0E7
:10060000E7E3F0E08081806B8C93ADE2B0E0EDE257
:10061000F0E0808181658C93CF91DF910895DF9325
:10062000CF93CDB7DEB7A7E3B0E0E7E3F0E080819A
:1006300080648C93ADE2B0E0EDE2F0E08081806414
:100640008C93CF91DF910895DF93CF930F92CDB725
:10065000DEB78983EFE2F0E089818083EEE2F0E0AB
:100660008081881F8827881F882F90E090700097CE
:10067000A9F3EFE2F0E080810F90CF91DF91089530
:10068000DF93CF93CDB7DEB7AFE5B0E0EFE5F0E0B5
:10069000808180688C93CF91DF910895DF93CF9311
:1006A000CDB7DEB7AFE5B0E0EFE5F0E080818F7762
:1006B0008C93CF91DF910895DF93CF9300D00F9269
:1006C000CDB7DEB789838981282F30E03B832A8329
:1006D0008A819B818130910589F02A813B8122307A
:1006E0003105A1F08A819B810097B9F4ABE5B0E0B8
:1006F000EBE5F0E0808180648C930FC0ABE5B0E067
:10070000EBE5F0E0808180688C9307C0ABE5B0E05A
:10071000EBE5F0E0808180628C930F900F900F905A
:10072000CF91DF910895DF93CF9300D00F92CDB793
:10073000DEB789838981282F30E03B832A838A8131
:100740009B818130910589F02A813B8122303105DE
:10075000A1F08A819B810097B9F4ABE5B0E0EBE5AD
:10076000F0E080818F7B8C930FC0ABE5B0E0EBE5D0
:10077000F0E080818F778C9307C0ABE5B0E0EBE5CC
:10078000F0E080818F7D8C930F900F900F90CF9130
:10079000DF910895DF93CF9300D000D0CDB7DEB7BF
:1007A00089836A838981282F30E03C832B838B8166
:1007B0009C818130910509F454C02B813C81223009
:1007C000310509F496C08B819C81009709F0A6C081
:1007D0008A81833079F4A5E5B0E0E5E5F0E0808139
:1007E0008E7F8C93A5E5B0E0E5E5F0E080818D7F1C
:1007F0008C9394C08A81882379F4A5E5B0E0E5E57F
:10080000F0E080818E7F8C93A5E5B0E0E5E5F0E037
:10081000808182608C9382C08A81823079F4A5E5E0
:10082000B0E0E5E5F0E0808181608C93A5E5B0E083
:10083000E5E5F0E0808182608C9370C08A81813030
:1008400009F06CC0A5E5B0E0E5E5F0E080818160ED
:100850008C93A5E5B0E0E5E5F0E080818D7F8C9399
:100860005DC08A81833079F4A5E5B0E0E5E5F0E08C
:1008700080818B7F8C93A5E5B0E0E5E5F0E0808199
:10088000877F8C934BC08A81882379F4A5E5B0E0FB
:10089000E5E5F0E080818B7F8C93A5E5B0E0E5E5B0
:1008A000F0E0808188608C9339C08A81823079F44D
:1008B000A5E5B0E0E5E5F0E0808184608C93A5E5F6
:1008C000B0E0E5E5F0E0808188608C9327C08A8104
:1008D000813021F5A5E5B0E0E5E5F0E080818460B8
:1008E0008C93A5E5B0E0E5E5F0E08081877F8C930F
:1008F00015C08A81882341F4A5E5B0E0E5E5F0E084
:1009000080818F7B8C930AC08A81823039F4A5E57F
:10091000B0E0E5E5F0E0808180648C930F900F906B
:100920000F900F90CF91DF910895DF93CF9300D078
:100930000F92CDB7DEB79A8389836B83ECE3F0E047
:100940008081882F90E0827090700097B9F7EEE375
:10095000F0E089818083EFE3F0E089819A81892F3B
:1009600099278083EDE3F0E08B818083ACE3B0E0F6
:10097000ECE3F0E0808184608C93ACE3B0E0ECE3E6
:10098000F0E0808182608C930F900F900F90CF9158
:10099000DF910895DF93CF9300D0CDB7DEB79A8370
:1009A0008983ECE3F0E08081882F90E08270907082
:1009B0000097B9F7EEE3F0E089818083EFE3F0E0A0
:1009C00089819A81892F99278083ACE3B0E0ECE399
:1009D000F0E0808181608C93EDE3F0E080810F9006
:1009E0000F90CF91DF910895DF93CF9300D000D087
:1009F0000F92CDB7DEB789836A834B838981282F15
:100A000030E03D832C838C819D818130910509F4F8
:100A100043C02C813D81223031052CF48C819D8195
:100A2000009771F0BCC02C813D812230310509F462
:100A30005FC08C819D818330910509F485C0AFC072
:100A40008B818130A1F4AAE3B0E0EAE3F0E0808199
:100A5000482F8A81282F30E081E090E0022E02C0EA
:100A6000880F991F0A94E2F7842B8C9398C0AAE30D
:100A7000B0E0EAE3F0E08081482F8A81282F30E05F
:100A800081E090E0022E02C0880F991F0A94E2F7DD
:100A9000809584238C9383C08B818130A1F4A7E35C
:100AA000B0E0E7E3F0E08081482F8A81282F30E032
:100AB00081E090E0022E02C0880F991F0A94E2F7AD
:100AC000842B8C936CC0A7E3B0E0E7E3F0E0808177
:100AD000482F8A81282F30E081E090E0022E02C06A
:100AE000880F991F0A94E2F7809584238C9357C04E
:100AF0008B818130A1F4A4E3B0E0E4E3F0E08081F5
:100B0000482F8A81282F30E081E090E0022E02C039
:100B1000880F991F0A94E2F7842B8C9340C0A4E3BA
:100B2000B0E0E4E3F0E08081482F8A81282F30E0B4
:100B300081E090E0022E02C0880F991F0A94E2F72C
:100B4000809584238C932BC08B818130A1F4A1E309
:100B5000B0E0E1E3F0E08081482F8A81282F30E087
:100B600081E090E0022E02C0880F991F0A94E2F7FC
:100B7000842B8C9314C0A1E3B0E0E1E3F0E080812A
:100B8000482F8A81282F30E081E090E0022E02C0B9
:100B9000880F991F0A94E2F7809584238C930F9015
:100BA0000F900F900F900F90CF91DF910895DF93EA
:100BB000CF9300D000D00F92CDB7DEB789836A8380
:100BC0004B838981282F30E03D832C838C819D814C
:100BD0008130910509F443C02C813D8122303105DB
:100BE0002CF48C819D81009771F0BCC02C813D81DB
:100BF0002230310509F45FC08C819D8183309105DD
:100C000009F485C0AFC08B818130A1F4ABE3B0E0C3
:100C1000EBE3F0E08081482F8A81282F30E081E0EB
:100C200090E0022E02C0880F991F0A94E2F7842BED
:100C30008C9398C0ABE3B0E0EBE3F0E08081482F09
:100C40008A81282F30E081E090E0022E02C0880FD8
:100C5000991F0A94E2F7809584238C9383C08B813B
:100C60008130A1F4A8E3B0E0E8E3F0E08081482F10
:100C70008A81282F30E081E090E0022E02C0880FA8
:100C8000991F0A94E2F7842B8C936CC0A8E3B0E020
:100C9000E8E3F0E08081482F8A81282F30E081E06E
:100CA00090E0022E02C0880F991F0A94E2F7809507
:100CB00084238C9357C08B818130A1F4A5E3B0E0ED
:100CC000E5E3F0E08081482F8A81282F30E081E041
:100CD00090E0022E02C0880F991F0A94E2F7842B3D
:100CE0008C9340C0A5E3B0E0E5E3F0E08081482FBD
:100CF0008A81282F30E081E090E0022E02C0880F28
:100D0000991F0A94E2F7809584238C932BC08B81E2
:100D10008130A1F4A2E3B0E0E2E3F0E08081482F6B
:100D20008A81282F30E081E090E0022E02C0880FF7
:100D3000991F0A94E2F7842B8C9314C0A2E3B0E0CD
:100D4000E2E3F0E08081482F8A81282F30E081E0C3
:100D500090E0022E02C0880F991F0A94E2F7809556
:100D600084238C930F900F900F900F900F90CF9142
:100D7000DF910895DF93CF9300D000D0CDB7DEB7D9
:100D800089836A838981282F30E03C832B838B8180
:100D90009C818130910549F12B813C8122303105C4
:100DA0002CF48B819C81009761F05AC02B813C818F
:100DB0002230310571F18B819C8183309105E9F1FD
:100DC0004FC0ABE3B0E0EBE3F0E08081482F8A81D5
:100DD000282F30E081E090E0022E02C0880F991F9A
:100DE0000A94E2F784278C933BC0A8E3B0E0E8E3E1
:100DF000F0E08081482F8A81282F30E081E090E068
:100E0000022E02C0880F991F0A94E2F784278C9360
:100E100027C0A5E3B0E0E5E3F0E08081482F8A81B8
:100E2000282F30E081E090E0022E02C0880F991F49
:100E30000A94E2F784278C9313C0A2E3B0E0E2E3C4
:100E4000F0E08081482F8A81282F30E081E090E017
:100E5000022E02C0880F991F0A94E2F784278C9310
:100E60000F900F900F900F90CF91DF910895DF9327
:100E7000CF9300D000D000D0CDB7DEB789836A838E
:100E80008981282F30E03D832C834C815D81413066
:100E9000510579F18C819D818230910534F42C814A
:100EA0003D812115310569F06CC04C815D81423076
:100EB0005105B9F18C819D818330910509F449C0B8
:100EC00060C0E9E3F0E08081282F30E08A81882F3C
:100ED00090E0A90102C0559547958A95E2F7CA01AD
:100EE00081709070882319F051E05B834BC01B82A6
:100EF00049C0E6E3F0E08081282F30E08A81882F26
:100F000090E0A90102C0559547958A95E2F7CA017C
:100F100081709070882319F051E05B8333C01B828D
:100F200031C0E3E3F0E08081282F30E08A81882F10
:100F300090E0A90102C0559547958A95E2F7CA014C
:100F400081709070882319F051E05B831BC01B8275
:100F500019C0E0E3F0E08081282F30E08A81882FFB
:100F600090E0A90102C0559547958A95E2F7CA011C
:100F700081709070882319F051E05B8303C01B825D
:100F800001C002C08B818E838E8126960FB6F894A5
:100F9000DEBF0FBECDBFCF91DF910895DF93CF931A
:100FA00000D000D00F92CDB7DEB789836A834B8320
:100FB0008981282F30E03D832C838C819D81813075
:100FC000910569F12C813D81223031052CF48C8111
:100FD0009D81009769F067C02C813D8122303105E9
:100FE000A9F18C819D818330910509F446C05BC0D5
:100FF0008B81882359F4AAE3B0E0EAE3F0E0808132
:10100000982F8A81809589238C934DC0AAE3B0E004
:10101000EAE3F0E090818A81892B8C9344C08B8134
:10102000882359F4A7E3B0E0E7E3F0E08081982F4C
:101030008A81809589238C9336C0A7E3B0E0E7E3EB
:10104000F0E090818A81892B8C932DC08B8188233D
:1010500059F4A4E3B0E0E4E3F0E08081982F8A81C2
:10106000809589238C931FC0A4E3B0E0E4E3F0E013
:1010700090818A81892B8C9316C08B81882359F4A7
:10108000A1E3B0E0E1E3F0E08081982F8A818095D0
:1010900089238C9308C0A1E3B0E0E1E3F0E0908104
:1010A0008A81892B8C930F900F900F900F900F9047
:1010B000CF91DF910895DF93CF9300D000D000D07F
:1010C000CDB7DEB789836A834B832C838981282F30
:1010D00030E03E832D836D817E8161307105C1F1E9
:1010E0008D819E818230910534F42D813E812115C0
:1010F000310571F08CC06D817E816230710509F41B
:1011000047C08D819E818330910509F461C07FC005
:10111000AAE3B0E0EAE3F0E08081982F8A8180952D
:1011200089238C93AAE3B0E0EAE3F0E08081482FC2
:101130008C81282F30E08B81882F90E0B90102C08C
:10114000660F771F8A95E2F7CB01842B8C935FC0E3
:10115000A7E3B0E0E7E3F0E08081982F8A818095F3
:1011600089238C93A7E3B0E0E7E3F0E08081482F88
:101170008C81282F30E08B81882F90E0B90102C04C
:10118000660F771F8A95E2F7CB01842B8C933FC0C3
:10119000A4E3B0E0E4E3F0E08081982F8A818095B9
:1011A00089238C93A4E3B0E0E4E3F0E08081482F4E
:1011B0008C81282F30E08B81882F90E0B90102C00C
:1011C000660F771F8A95E2F7CB01842B8C931FC0A3
:1011D000A1E3B0E0E1E3F0E08081982F8A8180957F
:1011E00089238C93A1E3B0E0E1E3F0E08081482F14
:1011F0008C81282F30E08B81882F90E0B90102C0CC
:10120000660F771F8A95E2F7CB01842B8C93269685
:101210000FB6F894DEBF0FBECDBFCF91DF9108951A
:04122000F894FFCF70
:00000001FF
